{
  "contractName": "Token",
  "abi": [
    {
      "inputs": [],
      "stateMutability": "nonpayable",
      "type": "constructor"
    },
    {
      "anonymous": false,
      "inputs": [
        {
          "indexed": true,
          "internalType": "address",
          "name": "owner",
          "type": "address"
        },
        {
          "indexed": true,
          "internalType": "address",
          "name": "spender",
          "type": "address"
        },
        {
          "indexed": false,
          "internalType": "uint256",
          "name": "value",
          "type": "uint256"
        }
      ],
      "name": "Approval",
      "type": "event"
    },
    {
      "anonymous": false,
      "inputs": [
        {
          "indexed": true,
          "internalType": "address",
          "name": "from",
          "type": "address"
        },
        {
          "indexed": true,
          "internalType": "address",
          "name": "to",
          "type": "address"
        },
        {
          "indexed": false,
          "internalType": "uint256",
          "name": "value",
          "type": "uint256"
        }
      ],
      "name": "Transfer",
      "type": "event"
    },
    {
      "inputs": [
        {
          "internalType": "address",
          "name": "",
          "type": "address"
        },
        {
          "internalType": "address",
          "name": "",
          "type": "address"
        }
      ],
      "name": "allowance",
      "outputs": [
        {
          "internalType": "uint256",
          "name": "",
          "type": "uint256"
        }
      ],
      "stateMutability": "view",
      "type": "function",
      "constant": true
    },
    {
      "inputs": [
        {
          "internalType": "address",
          "name": "",
          "type": "address"
        }
      ],
      "name": "balanceOf",
      "outputs": [
        {
          "internalType": "uint256",
          "name": "",
          "type": "uint256"
        }
      ],
      "stateMutability": "view",
      "type": "function",
      "constant": true
    },
    {
      "inputs": [],
      "name": "decimal",
      "outputs": [
        {
          "internalType": "uint256",
          "name": "",
          "type": "uint256"
        }
      ],
      "stateMutability": "view",
      "type": "function",
      "constant": true
    },
    {
      "inputs": [],
      "name": "name",
      "outputs": [
        {
          "internalType": "string",
          "name": "",
          "type": "string"
        }
      ],
      "stateMutability": "view",
      "type": "function",
      "constant": true
    },
    {
      "inputs": [],
      "name": "symbol",
      "outputs": [
        {
          "internalType": "string",
          "name": "",
          "type": "string"
        }
      ],
      "stateMutability": "view",
      "type": "function",
      "constant": true
    },
    {
      "inputs": [],
      "name": "totalSupply",
      "outputs": [
        {
          "internalType": "uint256",
          "name": "",
          "type": "uint256"
        }
      ],
      "stateMutability": "view",
      "type": "function",
      "constant": true
    },
    {
      "inputs": [
        {
          "internalType": "address",
          "name": "_to",
          "type": "address"
        },
        {
          "internalType": "uint256",
          "name": "_value",
          "type": "uint256"
        }
      ],
      "name": "transfer",
      "outputs": [
        {
          "internalType": "bool",
          "name": "success",
          "type": "bool"
        }
      ],
      "stateMutability": "nonpayable",
      "type": "function"
    },
    {
      "inputs": [
        {
          "internalType": "address",
          "name": "_spender",
          "type": "address"
        },
        {
          "internalType": "uint256",
          "name": "_value",
          "type": "uint256"
        }
      ],
      "name": "approve",
      "outputs": [
        {
          "internalType": "bool",
          "name": "success",
          "type": "bool"
        }
      ],
      "stateMutability": "nonpayable",
      "type": "function"
    },
    {
      "inputs": [
        {
          "internalType": "address",
          "name": "_from",
          "type": "address"
        },
        {
          "internalType": "address",
          "name": "_to",
          "type": "address"
        },
        {
          "internalType": "uint256",
          "name": "_value",
          "type": "uint256"
        }
      ],
      "name": "transferFrom",
      "outputs": [
        {
          "internalType": "bool",
          "name": "success",
          "type": "bool"
        }
      ],
      "stateMutability": "nonpayable",
      "type": "function"
    }
  ],
  "bytecode": "0x60806040526040518060400160405280600781526020017f4d79746f6b656e00000000000000000000000000000000000000000000000000815250600090816200004a91906200038f565b506040518060400160405280600381526020017f4d59540000000000000000000000000000000000000000000000000000000000815250600190816200009191906200038f565b506012600255600254600a620000a89190620005f9565b620f4240620000b891906200064a565b600355348015620000c857600080fd5b50600354600460003373ffffffffffffffffffffffffffffffffffffffff1673ffffffffffffffffffffffffffffffffffffffff16815260200190815260200160002081905550620006ab565b600081519050919050565b7f4e487b7100000000000000000000000000000000000000000000000000000000600052604160045260246000fd5b7f4e487b7100000000000000000000000000000000000000000000000000000000600052602260045260246000fd5b600060028204905060018216806200019757607f821691505b602082108103620001ad57620001ac6200014f565b5b50919050565b60008190508160005260206000209050919050565b60006020601f8301049050919050565b600082821b905092915050565b600060088302620002177fffffffffffffffffffffffffffffffffffffffffffffffffffffffffffffffff82620001d8565b620002238683620001d8565b95508019841693508086168417925050509392505050565b6000819050919050565b6000819050919050565b6000620002706200026a62000264846200023b565b62000245565b6200023b565b9050919050565b6000819050919050565b6200028c836200024f565b620002a46200029b8262000277565b848454620001e5565b825550505050565b600090565b620002bb620002ac565b620002c881848462000281565b505050565b5b81811015620002f057620002e4600082620002b1565b600181019050620002ce565b5050565b601f8211156200033f576200030981620001b3565b6200031484620001c8565b8101602085101562000324578190505b6200033c6200033385620001c8565b830182620002cd565b50505b505050565b600082821c905092915050565b6000620003646000198460080262000344565b1980831691505092915050565b60006200037f838362000351565b9150826002028217905092915050565b6200039a8262000115565b67ffffffffffffffff811115620003b657620003b562000120565b5b620003c282546200017e565b620003cf828285620002f4565b600060209050601f831160018114620004075760008415620003f2578287015190505b620003fe858262000371565b8655506200046e565b601f1984166200041786620001b3565b60005b8281101562000441578489015182556001820191506020850194506020810190506200041a565b868310156200046157848901516200045d601f89168262000351565b8355505b6001600288020188555050505b505050505050565b7f4e487b7100000000000000000000000000000000000000000000000000000000600052601160045260246000fd5b60008160011c9050919050565b6000808291508390505b60018511156200050457808604811115620004dc57620004db62000476565b5b6001851615620004ec5780820291505b8081029050620004fc85620004a5565b9450620004bc565b94509492505050565b6000826200051f5760019050620005f2565b816200052f5760009050620005f2565b8160018114620005485760028114620005535762000589565b6001915050620005f2565b60ff84111562000568576200056762000476565b5b8360020a91508482111562000582576200058162000476565b5b50620005f2565b5060208310610133831016604e8410600b8410161715620005c35782820a905083811115620005bd57620005bc62000476565b5b620005f2565b620005d28484846001620004b2565b92509050818404811115620005ec57620005eb62000476565b5b81810290505b9392505050565b600062000606826200023b565b915062000613836200023b565b9250620006427fffffffffffffffffffffffffffffffffffffffffffffffffffffffffffffffff84846200050d565b905092915050565b600062000657826200023b565b915062000664836200023b565b9250817fffffffffffffffffffffffffffffffffffffffffffffffffffffffffffffffff0483118215151615620006a0576200069f62000476565b5b828202905092915050565b610ca980620006bb6000396000f3fe608060405234801561001057600080fd5b50600436106100935760003560e01c806370a082311161006657806370a082311461013457806376809ce31461016457806395d89b4114610182578063a9059cbb146101a0578063dd62ed3e146101d057610093565b806306fdde0314610098578063095ea7b3146100b657806318160ddd146100e657806323b872dd14610104575b600080fd5b6100a0610200565b6040516100ad919061093f565b60405180910390f35b6100d060048036038101906100cb91906109fa565b61028e565b6040516100dd9190610a55565b60405180910390f35b6100ee6103b8565b6040516100fb9190610a7f565b60405180910390f35b61011e60048036038101906101199190610a9a565b6103be565b60405161012b9190610a55565b60405180910390f35b61014e60048036038101906101499190610aed565b6105b3565b60405161015b9190610a7f565b60405180910390f35b61016c6105cb565b6040516101799190610a7f565b60405180910390f35b61018a6105d1565b604051610197919061093f565b60405180910390f35b6101ba60048036038101906101b591906109fa565b61065f565b6040516101c79190610a55565b60405180910390f35b6101ea60048036038101906101e59190610b1a565b6106c2565b6040516101f79190610a7f565b60405180910390f35b6000805461020d90610b89565b80601f016020809104026020016040519081016040528092919081815260200182805461023990610b89565b80156102865780601f1061025b57610100808354040283529160200191610286565b820191906000526020600020905b81548152906001019060200180831161026957829003601f168201915b505050505081565b60008073ffffffffffffffffffffffffffffffffffffffff168373ffffffffffffffffffffffffffffffffffffffff16036102c857600080fd5b81600560003373ffffffffffffffffffffffffffffffffffffffff1673ffffffffffffffffffffffffffffffffffffffff16815260200190815260200160002060008573ffffffffffffffffffffffffffffffffffffffff1673ffffffffffffffffffffffffffffffffffffffff168152602001908152602001600020819055508273ffffffffffffffffffffffffffffffffffffffff163373ffffffffffffffffffffffffffffffffffffffff167f8c5be1e5ebec7d5bd14f71427d1e84f3dd0314c0f7b2291e5b200ac8c7c3b925846040516103a69190610a7f565b60405180910390a36001905092915050565b60035481565b6000600460008573ffffffffffffffffffffffffffffffffffffffff1673ffffffffffffffffffffffffffffffffffffffff1681526020019081526020016000205482111561040c57600080fd5b600560008573ffffffffffffffffffffffffffffffffffffffff1673ffffffffffffffffffffffffffffffffffffffff16815260200190815260200160002060003373ffffffffffffffffffffffffffffffffffffffff1673ffffffffffffffffffffffffffffffffffffffff1681526020019081526020016000205482111561049557600080fd5b81600560008673ffffffffffffffffffffffffffffffffffffffff1673ffffffffffffffffffffffffffffffffffffffff16815260200190815260200160002060003373ffffffffffffffffffffffffffffffffffffffff1673ffffffffffffffffffffffffffffffffffffffff1681526020019081526020016000205461051d9190610be9565b600560008673ffffffffffffffffffffffffffffffffffffffff1673ffffffffffffffffffffffffffffffffffffffff16815260200190815260200160002060003373ffffffffffffffffffffffffffffffffffffffff1673ffffffffffffffffffffffffffffffffffffffff168152602001908152602001600020819055506105a88484846106e7565b600190509392505050565b60046020528060005260406000206000915090505481565b60025481565b600180546105de90610b89565b80601f016020809104026020016040519081016040528092919081815260200182805461060a90610b89565b80156106575780601f1061062c57610100808354040283529160200191610657565b820191906000526020600020905b81548152906001019060200180831161063a57829003601f168201915b505050505081565b600081600460003373ffffffffffffffffffffffffffffffffffffffff1673ffffffffffffffffffffffffffffffffffffffff1681526020019081526020016000205410156106ad57600080fd5b6106b83384846106e7565b6001905092915050565b6005602052816000526040600020602052806000526040600020600091509150505481565b600073ffffffffffffffffffffffffffffffffffffffff168273ffffffffffffffffffffffffffffffffffffffff160361072057600080fd5b80600460008573ffffffffffffffffffffffffffffffffffffffff1673ffffffffffffffffffffffffffffffffffffffff1681526020019081526020016000205461076b9190610be9565b600460008573ffffffffffffffffffffffffffffffffffffffff1673ffffffffffffffffffffffffffffffffffffffff1681526020019081526020016000208190555080600460008473ffffffffffffffffffffffffffffffffffffffff1673ffffffffffffffffffffffffffffffffffffffff168152602001908152602001600020546107f99190610c1d565b600460008473ffffffffffffffffffffffffffffffffffffffff1673ffffffffffffffffffffffffffffffffffffffff168152602001908152602001600020819055508173ffffffffffffffffffffffffffffffffffffffff168373ffffffffffffffffffffffffffffffffffffffff167fddf252ad1be2c89b69c2b068fc378daa952ba7f163c4a11628f55a4df523b3ef836040516108999190610a7f565b60405180910390a3505050565b600081519050919050565b600082825260208201905092915050565b60005b838110156108e05780820151818401526020810190506108c5565b838111156108ef576000848401525b50505050565b6000601f19601f8301169050919050565b6000610911826108a6565b61091b81856108b1565b935061092b8185602086016108c2565b610934816108f5565b840191505092915050565b600060208201905081810360008301526109598184610906565b905092915050565b600080fd5b600073ffffffffffffffffffffffffffffffffffffffff82169050919050565b600061099182610966565b9050919050565b6109a181610986565b81146109ac57600080fd5b50565b6000813590506109be81610998565b92915050565b6000819050919050565b6109d7816109c4565b81146109e257600080fd5b50565b6000813590506109f4816109ce565b92915050565b60008060408385031215610a1157610a10610961565b5b6000610a1f858286016109af565b9250506020610a30858286016109e5565b9150509250929050565b60008115159050919050565b610a4f81610a3a565b82525050565b6000602082019050610a6a6000830184610a46565b92915050565b610a79816109c4565b82525050565b6000602082019050610a946000830184610a70565b92915050565b600080600060608486031215610ab357610ab2610961565b5b6000610ac1868287016109af565b9350506020610ad2868287016109af565b9250506040610ae3868287016109e5565b9150509250925092565b600060208284031215610b0357610b02610961565b5b6000610b11848285016109af565b91505092915050565b60008060408385031215610b3157610b30610961565b5b6000610b3f858286016109af565b9250506020610b50858286016109af565b9150509250929050565b7f4e487b7100000000000000000000000000000000000000000000000000000000600052602260045260246000fd5b60006002820490506001821680610ba157607f821691505b602082108103610bb457610bb3610b5a565b5b50919050565b7f4e487b7100000000000000000000000000000000000000000000000000000000600052601160045260246000fd5b6000610bf4826109c4565b9150610bff836109c4565b925082821015610c1257610c11610bba565b5b828203905092915050565b6000610c28826109c4565b9150610c33836109c4565b9250827fffffffffffffffffffffffffffffffffffffffffffffffffffffffffffffffff03821115610c6857610c67610bba565b5b82820190509291505056fea2646970667358221220b366e2ea8f7990b2877e62f72dd6cd73df87e750cc04bdeb69c8de84a55820e164736f6c634300080f0033",
  "immutableReferences": {},
  "source": "pragma solidity ^0.8.0;\r\n\r\ncontract Token{\r\n\tstring public name=\"Mytoken\";\r\n\tstring public symbol=\"MYT\";\r\n\tuint256 public decimal= 18;\r\n\tuint256 public totalSupply=1000000*(10**decimal);\r\n\tmapping(address=>uint256) public balanceOf;\r\n\tmapping(address=>mapping(address=>uint256)) public allowance;\r\n\r\n\tevent Transfer(address indexed from,address indexed to,uint256 value);\r\n\tevent Approval(address indexed owner,address indexed spender,uint256 value);\r\n\t\tconstructor() public{\r\n\t\t\tbalanceOf[msg.sender]=totalSupply;\r\n\t\t}\r\n\t\tfunction transfer(address _to,uint256 _value) public returns(bool success){\r\n\t\t\trequire(balanceOf[msg.sender]>=_value);\r\n\t\t\t_transfer(msg.sender,_to,_value);\r\n\t\t\treturn true;\r\n\t\t}\r\n\r\n\t\tfunction _transfer(address _from,address _to,uint256 _value) internal {\r\n\t\t\trequire(_to!=address(0));\r\n\t\t\tbalanceOf[_from]=balanceOf[_from]-(_value);\r\n\t\t\tbalanceOf[_to]=balanceOf[_to]+(_value);\r\n\t\t\temit Transfer(_from,_to,_value);\r\n\t\t}\r\n\r\n\t\tfunction approve(address _spender,uint256 _value) public returns(bool success){\r\n\t\t\trequire(_spender!=address(0));\r\n\t\t\tallowance[msg.sender][_spender]=_value;\r\n\t\t\temit Approval(msg.sender,_spender,_value);\r\n\t\t\treturn true;\r\n\t\t}\r\n\r\n\t\tfunction transferFrom(address _from,address _to,uint256 _value) public returns(bool success){\r\n\t\t\t require(_value<=balanceOf[_from]);\r\n\t\t\t require(_value<=allowance[_from][msg.sender]);\r\n\t\t\t allowance[_from][msg.sender]=allowance[_from][msg.sender]-(_value);\r\n\t\t\t_transfer(_from,_to,_value);\r\n\t\t\treturn true;\r\n\t\t}\r\n\t}",
  "sourcePath": "D:\\sstudy\\Portfolio\\assignment-web3\\src\\contracts\\Token.sol",
  "compiler": {
    "name": "solc",
    "version": "0.8.15+commit.e14f2714.Emscripten.clang"
  },
  "schemaVersion": "3.4.8",
  "updatedAt": "2022-08-05T14:26:24.362Z",
  "networkType": "ethereum",
  "devdoc": {
    "kind": "dev",
    "methods": {},
    "version": 1
  },
  "userdoc": {
    "kind": "user",
    "methods": {},
    "version": 1
  }
}